:020000040800F2
:10000000F026002079020008713800082537000822
:100010006D380008B31C0008C9410008000000004A
:100020000000000000000000000000009F3A0008EF
:10003000051D00080000000075380008A13A0008FE
:10004000930200089302000893020008930200083C
:10005000930200089302000893020008930200082C
:10006000930200089302000893020008930200081C
:1000700093020008B91C00089302000893020008CC
:10008000C91C0008930200089302000893020008AC
:1000900093020008930200089302000893020008EC
:1000A00093020008930200089302000893020008DC
:1000B00093020008930200089302000893020008CC
:1000C00093020008930200089302000893020008BC
:1000D0009302000893020008B94100089302000847
:1000E000930200089302000893020008930200089C
:1000F000930200089302000893020008930200088C
:10010000930200089302000893020008930200087B
:10011000930200089302000893020008930200086B
:10012000930200089302000893020008930200085B
:1001300000F002F800F090F80AA090E8000C824469
:100140008344AAF10107DA4501D100F085F8AFF246
:10015000090EBAE80F0013F0010F18BFFB1A43F0A5
:1001600001031847E442000004430000103A24BF92
:1001700078C878C1FAD8520724BF30C830C144BF0C
:1001800004680C607047000000230024002500264E
:10019000103A28BF78C1FBD8520728BF30C148BFEA
:1001A0000B6070476E2900F0E382702900F03B84F9
:1001B000662904F0B180652904F0AE80672904F057
:1001C000AB80612904F0AA8003681B0A28BF41F0B4
:1001D0008001692900F0AC80642900F0A9807529AC
:1001E00000F0A6806F2900F0C883782900F007840A
:1001F000E92900F06383E42900F06083F52900F029
:100200005D83EF2900F0C583F82900F006840368B8
:10021000DB0928BF41F08001632900F0E4827329E3
:1002200000F0E982E32901F01780F32901F01C8036
:10023000002070471FB501F069F80400002000217C
:1002400004F054F8401C60600020002104F038F8ED
:10025000E0601FBD10B510BD01F02AF81146FFF790
:10026000E9FF03F0EBFF01F007F903B4FFF7F2FF3A
:1002700003BC01F04FF900000948804709480047D6
:10028000FEE7FEE7FEE7FEE7FEE7FEE7FEE7FEE746
:10029000FEE7FEE704480549054A064B70470000A3
:1002A0000F3B000831010008F0200020F02600205C
:1002B000F0220020F02200201CB50C46064B7B44A7
:1002C00069460090204600F06CFA0446002069461A
:1002D00000F07AFA20461CBD0705000070B50C46F8
:1002E0000546012A05D02878800600D5EA69002352
:1002F00002E0012305E05B1C934202D2E05C00288F
:10030000F9D1A869E618C01AA861286A18442862B9
:10031000284600F09BF904E0D5E9012114F8010B0F
:100320009047B442F8D3284600F0A6F970BD00000B
:100330002DE9F0410646002410687529314616A5BE
:1003400010D000F0AAF9002802DA404213A507E015
:1003500031688A0701D512A502E0490704D511A525
:10036000012401E000F0A2F900210A2206F124078D
:1003700009E0B0FBF2FCB0FBF2F302FB1C003030F2
:1003800078541846491C0028F3D123462A463046A3
:10039000BDE8F04100F093B9000000002D0000001E
:1003A0002B000000200000002DE9F05F8946044684
:1003B0004FF0000ADFF874B1FB44C0F820A02046DB
:1003C000E1688847002874D0252806D0D4E90121A7
:1003D0009047206A401C2062F1E700265F462046D5
:1003E000E16888472028054607DB312D05D27819BA
:1003F00010F8200C08B10643F1E7B00701D526F04C
:100400000406C4F81CA00027C4F818A02A2D09D09F
:10041000284603F00BFF38B304EB8708303DC8F8DB
:10042000185019E059F8041B204604EB870291612B
:10043000E1688847012F054618D1E069002820DAD5
:1004400026F020061DE0D8F8180000EB800005EB30
:1004500040003038C8F818002046E1688847054653
:1004600003F0E4FE0028EED1012F0AD02E2D08D192
:100470002046E16888477F1C0546022F46F020068B
:10048000C4DBA069002803DA404246F00106A061FF
:10049000F00701D026F010066C2D0BD0682D09D086
:1004A0004C2D39D06A2D35D0742D35D07A2D33D0DE
:1004B00016E038E0E1682F4620468847B8420546F6
:1004C00009D16C2F26D04FF48060E16806432046A6
:1004D0008847054604E06C2F1AD04FF4807006431D
:1004E0000DB3A5F14100192802D8203546F4006665
:1004F0004A462946204626604E46FFF753FE80B105
:1005000001280BD0F61D26F0070000F1080956E778
:100510004020E4E78020D8E70020D6E706F1040970
:100520004DE7284652E7206ABDE8F09F8E3F000065
:1005300010B5431C02E010F8011B71B18107FAD11C
:100540004FF0013202C88C1A8C4314EAC211F9D060
:10055000C01A0A0603D0C01E10BDC01A10BD0A047E
:1005600001D0801E10BD0902FCD0401E10BD032A20
:1005700040F2308010F0030C00F0158011F8013BC0
:10058000BCF1020F624498BF11F801CB00F8013BA7
:1005900038BF11F8013BA2F1040298BF00F801CB6B
:1005A00038BF00F8013B11F0030300F04782083A1E
:1005B000C0F0088051F8043B083A51F804CBA0E899
:1005C0000810F5E7121D5CBF51F8043B40F8043BEE
:1005D000AFF30080D20724BF11F8013B11F801CB23
:1005E00048BF11F8012B24BF00F8013B00F801CBF4
:1005F00048BF00F8012B70474FF0000200B51346CA
:1006000094469646203922BFA0E80C50A0E80C5032
:10061000B1F12001BFF4F7AF090728BFA0E80C50E3
:1006200048BF0CC05DF804EB890028BF40F8042BDC
:1006300008BF704748BF20F8022B11F0804F18BF49
:1006400000F8012B704770477047704770B504463B
:1006500085690068C10601D5302600E02026C00764
:1006600007D070BDD4E9012130469047206A401C74
:1006700020626D1EF6D570BD70B5044685690078A0
:10068000C00707D170BDD4E9012120209047206A1E
:10069000401C20626D1EF6D570BD09684A0501D563
:1006A00040B27047C905FCD500B2704709684A05D9
:1006B00001D5C0B27047C905FCD580B270472DE99D
:1006C000F0470D4699469246044600F12408016819
:1006D000880604D5E06921F01001216000E00120C6
:1006E000A84201DD471B00E00027A1697A1902EB4F
:1006F0000900081AA0612078C00602D42046FFF73E
:10070000A5FF002608E0D4E901211AF80600904769
:10071000206A401C761C20624E45F4DB2078C0061F
:100720000AD52046FFF792FF06E0D4E901213020E8
:100730009047206A401C2062381EA7F10107F4DCB4
:1007400007E0D4E9012118F805009047206A401C11
:100750002062281EA5F10105F3DC2046FFF78CFF7F
:100760002078000602D50220BDE8F0870120FBE7D3
:1007700011680268006A530501D508700AE0D305C4
:1007800001D5088006E0130603D5C217C1E90002AF
:1007900000E008600120704701694A1C0261087886
:1007A000704700B58FB0CDE90131002105910549B1
:1007B0007944CDE9031011466846FFF7F5FD0FB007
:1007C00000BD0000E5FFFFFF0A6802F8010B0A60A8
:1007D000704710B5436913B1AFF3008001E0FFF734
:1007E0007DFD012010BD127800F124010A70002265
:1007F0004A700122EDE711684FF0FF32E9E700008F
:100800002DE9FF5F15468A460446DFF8AC80F844C0
:100810000027D8E900103E46CDE9001010E03AF874
:1008200016106A4602A800F023FD411C07D021786B
:10083000890603D5E269391891420DD80744761C20
:100840002078800602D5E069B84205DDAE42E6DBDD
:100850003AF816000028E2D1A069C01BA06120462A
:10086000FFF7F4FED8E90010CDE90010002017E0F2
:100870003AF818106A4602A800F0FAFCB0F1FF3FFF
:1008800081460BD000250DF1080B05E0D4E90121CC
:100890001BF8050090476D1C4D45F7D308F101008A
:1008A000B0428046E4DB206A384420622046FFF7ED
:1008B000E3FEBDE8FF9F00004A3B00002DE9F04148
:1008C0008046D21D22F007020025D2E90002F52958
:1008D00015A614D0011E72F1000106DA0023D0EB38
:1008E000030063EB020211A608E0D8F800108B07A2
:1008F00001D50FA602E0490701D50EA60125114634
:10090000002408F1240704E000F0CAF830323A5518
:10091000641C50EA0102F7D12B463246214640467C
:10092000BDE8F041FFF7CBBE000000002D00000045
:100930002B0000002000000030B4002100F124044E
:1009400008E002F00705D208303542EA4372DB08BE
:100950006554491C52EA0305F3D10468002310A230
:10096000250707D5A40600D421B1C46901230DA22F
:10097000641EC46130BCFFF7A2BE10B50446214618
:100980001068FFF793FE02462046BDE810400023A2
:10099000D2E7D21D22F00701D1E90023CCE7000005
:1009A0000000000030000000F0B40D460188090589
:1009B00002D5214C7C4402E01F4C7C440E340021C3
:1009C00000F1240608E002F00F071209E75D42EA91
:1009D00003721B097754491C52EA0307F3D10278CA
:1009E0000023120704D5702D06D009B1022311345B
:1009F0002246F0BCFFF763BE01231034F8E770B560
:100A000004460D4621461068FFF750FE024629466F
:100A10002046BDE870400023C6E7D21D22F0070340
:100A2000D3E90023C0E70368126843F020030360A2
:100A30000823C3610023B7E7AC39000010B5203AA2
:100A4000C0F00B80B1E81850203AA0E81850B1E887
:100A50001850A0E81850BFF4F5AF5FEA027C24BF3D
:100A6000B1E81850A0E8185044BF18C918C0BDE834
:100A700010405FEA827C24BF51F8043B40F8043BFD
:100A800008BF7047D20728BF31F8023B48BF11F8B2
:100A9000012B28BF20F8023B48BF00F8012B70470C
:100AA00030B5B0F10A024FEA900E71F100034EEA40
:100AB000817EB0EB0E0061EB91014FEA101E4EEA11
:100AC000017E10EB0E0041EB11114FEA102E4EEAA1
:100AD000016E10EB0E0041EB11214FEA104E4EEA71
:100AE000014E10EB0E0041EB1141401841F10001A5
:100AF0004FEAD00040EA41704FEAD10110EB800587
:100B00004FEA810444EA907444EB01046D1944EB0C
:100B10000404521BA3414FF0000348BF0A3200D522
:100B200030BD401C41F1000130BD70472DE9FF4F41
:100B30000C461E464FF0FF378BB0D2E90001DDF8BE
:100B400060800A908A46C1F30A5505B93D460021E6
:100B500008464FF00000BAF1000F00F4400005DA3B
:100B600000EB80004FF4400101EA50004FEA905939
:100B7000B9F1010F00DDB9460A9850EA4A000ED0DB
:100B800044F61050A5F2FF3545432F14B8F1000F7D
:100B90001ED07542291E1EDDC9F100021CE0B8F10D
:100BA000010F4FF0000001D0302103E0F24305E0D7
:100BB0002154401CB042FBDB30460022002121546E
:100BC0000B99C1F80880C1E900200FB0BDE8F08F93
:100BD000BD1B6D1CDEE74A4600DA694206A800F03C
:100BE000D9FB06AB93E8070003AB83E80700504648
:100BF0000A9900F096FC8DE80700A0F500501F3818
:100C000000900398002D0ADD42F21F014A46084475
:100C1000002303A90390684600F0FFFE09E0A0F559
:100C200000504A461F38002303A90390684600F08D
:100C300009FF8DE807000004000C03D04FF0FF30DF
:100C4000410800E01046B8F1000F03D000220092E6
:100C500015461EE0751E05D4FFF722FF303262559F
:100C60006D1EF9D5B3460122084302D000227F1C35
:100C700004E02078302801D100227F1E002A099745
:100C800084D01DE0112D07DAFFF70AFF30326255DC
:100C90006D1C50EA0102F5D1084302D00098C8B19A
:100CA0000EE00021681E05E0235C625C6354225460
:100CB000401E491C8142F7DBAB46A81B401E099031
:100CC000002004F80B000B98099AC0F80880C0E9CE
:100CD000002B7AE711264FF0000857E72DE9F04F77
:100CE00088460446D21D22F0070191B0D1E90001E7
:100CF000CDE90A0103F06AFA02460B98C00F01D051
:100D00002D2007E02068810701D52B2002E020215B
:100D100001EAC000032A099001D0072A05DB034637
:100D20004146204600F0F6FA0BE12078800601D516
:100D3000E06900E00620B8F1650F814606D0B8F101
:100D4000660F18D0B8F1670F70D131E00020B9F10B
:100D5000110F009001DB112301E009F101030AAA40
:100D600001A90CA8FFF7E2FEDDE90C70002609F1ED
:100D70000105834647E001204B4600904FF00047B5
:100D80000AAA01A90CA8FFF7D1FEDDE90DB00C9964
:100D90005D46002610B909F101000D18B9EB0500F8
:100DA00003D4C0F1FF3609F10105A5EB09002BE0E2
:100DB000B9F1010F01DA4FF001090020B9F1110F6B
:100DC0000090484601DD112300E003460AAA01A96C
:100DD0000CA8FFF7ABFEDDE90C704D4600268346FC
:100DE000207800070AD4AB4500DA5D4601A8012D42
:100DF00004DD411911F8011C302907D04F4502DAF2
:100E000017F1040F04DA012082460FE06D1EEEE7B1
:100E1000002F02DCED1B3E4403E0781CA84200DDFD
:100E20007D1CB81B00F1010A4FF000472078000735
:100E300003D4AA4501DB4FF0FF3A0021B7F1004F80
:100E40000DF143088DF8431024D002202B23002FEE
:100E500001DA7F422D230A21021EA0F1010000DCED
:100E60005FB197FBF1FC97FBF1F201FB1C7C17468D
:100E70000CF1300C08F801CDEEE7A8F10100037089
:100E80002188090501D5452100E06521A0F101086F
:100E900000F8011C09980FA9A1EB0807FF1D00B17C
:100EA0000120411901EBEA70A1693844081A401E7B
:100EB000A0612078C00602D42046FFF7C7FB09983E
:100EC00028B1D4E901219047206A401C2062207893
:100ED000C00622D52046FFF7B9FB1EE0002E04DB3A
:100EE000B34502DD01A8805D00E03020D4E9012196
:100EF0009047206A401C2062761CAAF101005FEA3C
:100F0000000A0AD100F002FAC0680168405CD4E926
:100F100001219047206A401C2062281EA5F101058E
:100F2000DCDC07E0D4E9012118F8010B9047206AC6
:100F3000401C2062381EA7F10107F3DC2046FFF7B2
:100F40009BFB032011B041E62DE9F04F04460D460E
:100F5000D21D22F0070089B0D0E9009748463946F3
:100F600003F034F90246F80F01D02D2307E0206882
:100F7000810701D52B2302E0202101EAC0038DF86F
:100F800020300BB1012000E00020032A824601D06E
:100F9000072A04DB2946204600F0BCF93FE120780F
:100FA000800601D40D2500E0E569C7F30A560D2D32
:100FB00049DA00214FEA175B08464FF00000002F86
:100FC00000F4400007DA00EB80004FF4400100EB32
:100FD000D07001EA60008115012901DD4FF0FF3179
:100FE00000224FEA850CBCF1180F06D31346ACF172
:100FF00018004FF08052C24003E04FF4801323FAF0
:101000000CF30CF10C0CBCF1200F04D3ACF1200C50
:1010100009FA0CF001E007FA0CF000294FF0004843
:1010200001DD18B90FE00ED140450CD319EB0209D0
:101030005F4121B9404502D19F4329EA0209BBEB38
:10104000175F00D0761C2088000502D57B487844C5
:1010500002E07A487844193808AA302302F80A30A6
:10106000037C0AF10101002E0AF1020A53546A4678
:1010700002DC4FF0300101E04FF031014FF0010888
:101080008DF8001002D0A6F2FF3603E059EA4701BE
:1010900000D06B4E002D02DC2178090704D54FF0FB
:1010A00002082E218DF80110C44600210BE0C7F381
:1010B00003433F01C35C491C6D1E02F8083005293B
:1010C00008F1010801DA002DF1DC00210CE000EB51
:1010D0001973491C1B786D1E082902F808304FEA65
:1010E000091908F1010801DA002DF0DC21688B06EE
:1010F00002D516E0A8F10108E04505DD02EB080382
:1011000013F8013C302BF5D0B8F1000F09DD02EBEC
:10111000080313F8013C2E2B03D1090701D4A8F1D1
:101120000108002D05DD3E2102F808106D1E08F1B2
:101130000108407C002E02F8080008F1010804DADA
:101140002D20764202F8080002E02B2002F8080069
:101150000A214FF47A70864208F101080BDB96FBF6
:10116000F0F3303302F8083096FBF0F308F1010891
:1011700000FB136601E0642E0CDB642096FBF0F3A9
:10118000303302F8083096FBF0F308F1010800FB59
:10119000136601E00A2E06DB96FBF1F0303002F810
:1011A000080008F1010896FBF1F001FB10603030F7
:1011B00002F80800A16908F1010808EB050202EB3A
:1011C0000A00081AA0612078C00602D42046FFF762
:1011D0003DFA216A08AE01EB0A00206204E0D4E97E
:1011E000012116F8010B9047BAF1010AF7D22078D5
:1011F000C00602D52046FFF729FA6E4609E016F828
:10120000010B3E280FD0D4E901219047206A401CF1
:101210002062B8F10108F2D22046FFF72DFA09B09A
:101220000320BDE8F08F206A2844206203E0D4E95F
:101230000121302090476D1EEBD3F8E74D330000BD
:1012400002FCFFFF10B5436913B1AFF3008001E06A
:10125000FFF7D6FA012010BD128800F12401828424
:101260000022C2840122EDE711684FF0FF32E9E766
:1012700070B516460C46054600F040F8036893F832
:101280000101012806D0FF2C0FD8185D68B101209C
:101290002C7070BDD3F807013246214603F20713C4
:1012A00003442846BDE8704018474FF0FF3070BD3A
:1012B000754600F0EBF8AE4605006946534620F04F
:1012C0000700854618B020B5FEF7E4FFBDE82040D2
:1012D0004FF000064FF000074FF000084FF0000BF2
:1012E00021F00701AC46ACE8C009ACE8C009ACE8A5
:1012F000C009ACE8C0098D467047000010B500F089
:1013000005F8001D10BD00BFE52F00000048704724
:10131000B02000202DE9F0411F4604460326016855
:10132000072A01F4006004DB08B116A505E016A544
:1013300003E008B115A500E015A521F0100020601C
:10134000A069C01EA0610FB1401EA0612046FFF73A
:101350007DF94FB1D4E9012138469047206A401CFD
:101360002062C01C206206E0206AFAE7D4E901216D
:1013700015F8010B9047761EF8D22046FFF77CF94E
:10138000BDE8F0814E414E006E616E00494E460050
:10139000696E66002DE9F047814616468AB03548E9
:1013A00078440DC88DE80D0032487844801C03ACA9
:1013B0000DC884E80D0041F69B300844372190FBAE
:1013C000F1F290FBF1F5A5F1800501FB12041B3C45
:1013D00002D56442012000E00020DFF898A080469A
:1013E0000027FA44AAF1BE0A0EE0E0070AD032460E
:1013F000684607EB470101230AEB810100F022FB5D
:101400008DE8070064107F1C002CEED1194F7F443B
:10141000AE3F19E0E80715D007EB04100DF1180AEC
:1014200090E80E008AE80E00C068F04201D19819D9
:1014300008903246012306A903A800F003FB03AB82
:1014400083E807006D10641C002DE3D14FF0010309
:1014500032466946B8F1000F03A802D000F0DDFA69
:1014600001E000F0EFFAC9E90001C9F808200AB06C
:10147000BDE8F0878C30000010B50446AFF3008063
:101480002046BDE81040FEF7F0BE0000004870475F
:10149000902000204FF0013C50F8042B51F8043B01
:1014A0009A4221D1A2EB0C03934313EACC1317D138
:1014B00050F8042B51F8043B9A4215D1A2EB0C03CF
:1014C000934313EACC130BD150F8042B51F8043B8F
:1014D0009A4209D1A2EB0C03934313EACC13DBD05D
:1014E0004FF00000704700BFD01A01BAB1FA81F185
:1014F00001F0180122FA01F0CB40C1F12001DBB26A
:10150000C0B2C01A2CFA01F3D11A914311EAC311E7
:10151000E6D1704701491820ABBEFEE72600020065
:1015200070475FEA400C08BF91F0000F4FEA8C2330
:101530004FEAC12243EA51514FEA1C5018BF00F54F
:10154000F0404FEA300018BF41F000415FEA6C5CA8
:1015500000F02980BCF1FF3F08BF40F08040704799
:10156000130C06BF12044FF0100C4FF0000C130EBA
:1015700004BF12020CF1080C130F04BF12010CF18E
:10158000040C930F04BF92000CF1020CD30F04BFA4
:1015900052000CF1010C11464FF00002A0F11F00A7
:1015A000A0EB0C00704711F0004F08BF704731F0FE
:1015B00000413FF4D5AF0B0C06BF09044FF0100CEF
:1015C0004FF0000C0B0E04BF09020CF1080C0B0FBE
:1015D00004BF09010CF1040C8B0F04BF89000CF14E
:1015E000020CCB0F04BF49000CF1010CCCF120031D
:1015F000A0EB0C0022FA03F302FA0CF241EA030119
:1016000000F10100704720F07F4C80EA030023F0D6
:101610007F47ACEB070303F57C5300F0004003F178
:10162000FF032DE980494FEA154B09B44FEA1443F3
:1016300025EA0B4E24EA03480FF2042606EB132793
:1016400049083E785FEA320203FB0667C7F50007E8
:1016500007FB06F64FEA54374FEAD64606F1020674
:1016600007FB066CCCF1005C4FEA1C472CEA074CE8
:1016700007FB06F40CFB06F504EB15464FEA96163D
:1016800034BF00204FF000404FEAD13706FB07FC83
:101690004FEA1C4C0CFB0BF7D21B03FB0CF761EB66
:1016A00007010CFB0EF7B0EB074072EB17420CFB87
:1016B00008F734BFA2EB0742B2EB074261EB1741D8
:1016C0004FEA0C444FEA910706FB07FC4FEA1C4C1B
:1016D0000CFB0BF7B0EBC74072EB573203FB0CF778
:1016E00034BFA2EBC742B2EBC74261EB57310CFBF0
:1016F0000EF7B0EBC70072EB57720CFB08F734BF64
:10170000A2EBC702B2EBC70261EB5771039F4FEA2E
:10171000816141EA921104EBCC044FEAD1374FEAE0
:10172000826206FB07FC42EA90124FEA80604FEAB1
:101730001C4C0CFB0BF7D21B03FB0CF761EB0701F6
:101740000CFB0EF7B0EB074072EB17420CFB08F7EF
:1017500034BFA2EB0742B2EB074261EB17414FEAFD
:101760008C554FEA910704EB9C2406FB07FC4FEADB
:101770001C4C0CFB0BF7B0EBC74072EB573203FB72
:101780000CF734BFA2EBC742B2EBC74261EB573153
:101790000CFB0EF7B0EBC70072EB57720CFB08F7AF
:1017A00034BFA2EBC702B2EBC70261EB577115EB76
:1017B0004C254FEA816141EA92114FEA82624FEA79
:1017C000D13742EA901206FB07FC44F100044FEACD
:1017D00080604FEA1C4C0CFB0BF7D21B03FB0CF791
:1017E00061EB07010CFB0EF7B0EB074072EB174201
:1017F0000CFB08F734BFA2EB0742B2EB074261EBE8
:10180000174115EB1C154FEA813141EA92414FEA2D
:10181000823242EA90424FEA80304FEA0C7644F13D
:10182000000448EA03434EEA0B484FF0000EB2EBC7
:10183000080C71EB030724BF624639464EEB0E0ECF
:101840004FF0000B0018524149414BEB0B0BB2EB30
:10185000080C71EB03077BF1000B24BF624639468D
:101860004EEB0E0E4FF0000B0018524149414BEB6E
:101870000B0BB2EB080C71EB03077BF1000B24BFE1
:10188000624639464EEB0E0E51EA020718BF46F08B
:10189000010616EB0E7655F1000254F1000103D556
:1018A000BDE88901BDE80088BDE88901BDE80048C0
:1018B000B619524141EB0101A3F101037047808049
:1018C0007F7E7D7C7B7A797877767675747372719A
:1018D00071706F6E6E6D6C6C6B6A6A696868676652
:1018E00066656464636362616160605F5F5E5E5DE4
:1018F0005D5C5C5B5B5A5A59595858575756565558
:1019000055555454535352525251515050504F4FB9
:101910004F4E4E4D4D4D4C4C4C4B4B4B4A4A4A4909
:10192000494948484847474747464646454545444C
:101930004444444343434342424242414141002BD9
:101940009C4630D477002BD01CB54FEA370703B440
:101950004FF010004FF01001BAF1000F06D0BCF1AB
:10196000000FDCBF40F0080040F008014FF000001D
:101970000FBCBDE810400BF1010BBBF1010F08BF1C
:101980005FEA170722BF12F1010211F101014FF0C6
:10199000004143F1000300F0004043EA00007047BB
:1019A000F9D35708D0E746EA064613F1400F4FEA4D
:1019B00016461FDD13F1200FDFBF16430A46002134
:1019C00020335B42BED0C3F1200746EA064602FA46
:1019D00007F74FEA164646EA0706C3F1200722FA40
:1019E00003F201FA07F721FA03F14FF0000342EA8C
:1019F0000702A7E746EA020646EA06464FEA164607
:101A000046EA0106BCBF46EA0646360C4FF0000324
:101A10004FF000024FF0000194E72DE9804C9A4608
:101A2000934670B491E8380007C831EA400C48BFCB
:101A300034EA430C03D5FFF7E6FDFFF780FFF0BC67
:101A4000BDE8008C2DE9804C9A46934670B491E82D
:101A5000380007C810F0804F08BF13F0804F03D143
:101A600000F005F8FFF76BFFF0BCBDE8008C20F03C
:101A70007F4780EA030023F07F4C07EB0C03A3F5BC
:101A80007C5300F00040A3F1FE0392F0000F00F041
:101A9000B38095F0000F00F077802DE901494FEAFF
:101AA00011404FEA144621EA004800FB06FC24EAF4
:101AB000064708FB06F607FB08F800FB07F718EBDC
:101AC00006484CEB164C4FEA124B18EB07484FEA0E
:101AD00015464CEB174022EA0B4E0BFB06FC25EAA1
:101AE00006470EFB06F607FB0EFE0BFB07F71EEB89
:101AF000064E4CEB164C4FF000061EEB074E4CEB1F
:101B0000174B18EB0B0840F1000018EB0E0B58EBCD
:101B1000000840F100008F1A4FF000013CBFC9439C
:101B2000661B14BFB5EB040C00213CBFC943F61B78
:101B30004FEA17444EEA8E0E27EA04454FEA1C4747
:101B400004FB07622CEA074C05FB07F70CFB05F6C4
:101B500004FB0CFC16EB074642EB174216EB0C4657
:101B600042EB1C421BEB060658EB0202414146EADF
:101B70009E0601D5BDE80189B619524141EB01012C
:101B8000A3F10103BDE801894FEA14454FEA11476B
:101B900024EA054621EA074C05FB07F406FB07F794
:101BA0000CFB06F105FB0CFC11EB074144EB174461
:101BB0004FEA124711EB0C4144EB1C4422EA074C5C
:101BC00005FB07F206FB07F70CFB06F605FB0CFC12
:101BD00016EB074642EB174216EB0C4642EB1C4550
:101BE0006A1854F1000148BF7047B619524141EBE1
:101BF0000101A3F10103704795F0000F37D04FEAC0
:101C000011424FEA144721EA024624EA074C02FB3C
:101C100007F106FB07F70CFB06F402FB0CFC14EBC8
:101C2000074441EB17414FEA154714EB0C4441EBD5
:101C30001C4125EA074C02FB07F506FB07F70CFBE6
:101C400006F602FB0CFC16EB074645EB174516EBB8
:101C50000C4645EB1C42121951F1000148BF704778
:101C6000B619524141EB0101A3F1010370474FEA5C
:101C700014454FEA114724EA054621EA074C05FBC3
:101C800007F106FB07F70CFB06F24FF0000605FB19
:101C90000CFC12EB074241EB174112EB0C4251EBEB
:101CA0001C4148BF7047921841EB0101A3F10103A9
:101CB000704700BFFEE7000010B5024800F02AF9A7
:101CC00010BD0000F000002010B5024800F022F91D
:101CD00010BD0000AC00002030B590F84050012449
:101CE000AC40C56B6C60046863604468102C04D120
:101CF0000468A2600468E16003E00468A16004680D
:101D0000E26030BD704772B600BFFEE701460022B8
:101D100091F82100022808D00420886300BF002029
:101D200081F8200000BF012070470868006820F09B
:101D30000E000B6818600868006820F001000B684E
:101D4000186091F8403001209840CB6B586001201A
:101D500081F8210000BF002081F8200000BF10465C
:101D6000E2E7000070B50446002594F8210002283F
:101D700003D00420A0630125C1E02068006820F0A2
:101D80000E00216808602068006820F001002168CA
:101D900008605C492068884252D95A4978392068DD
:101DA000884201D1012047E05649643920688842C1
:101DB00001D1102040E0534950392068884201D1B8
:101DC000801539E04F493C392068884201D18014A0
:101DD00032E04C4928392068884202D14FF48030E3
:101DE0002AE0484914392068884202D14FF4801013
:101DF00022E044492068884201D140041CE0424965
:101E00002068884201D1012016E03F491431206842
:101E1000884201D110200FE03B49283120688842D8
:101E200001D1801508E038493C312068884201D151
:101E3000801401E04FF480303349091F086051E0FD
:101E4000304978392068884201D1012047E02D4986
:101E500064392068884201D1102040E02949503976
:101E60002068884201D1801539E026493C39206834
:101E7000884201D1801432E0224928392068884202
:101E800002D14FF480302AE01E491439206888427C
:101E900002D14FF4801022E01A492068884201D113
:101EA00040041CE018492068884201D1012016E056
:101EB000154914312068884201D110200FE01249E1
:101EC00028312068884201D1801508E00E493C3154
:101ED0002068884201D1801401E04FF48030094924
:101EE00080394860012084F8210000BF002084F878
:101EF000200000BF606B10B12046616B8847284608
:101F000070BD000080000240080402400146886B5A
:101F10007047000070B50446E06B056820680668ED
:101F200094F84010042088402840002875D006F01E
:101F300004000028FAD02068006800F0200028B9CA
:101F40002068006820F0040021680860D5492068F6
:101F5000884254D9D34978392068884201D1042075
:101F600049E0D04964392068884201D1402042E0EC
:101F7000CC4950392068884201D100153BE0C9495D
:101F80003C392068884202D14FF4804033E0C54993
:101F900028392068884202D14FF480202BE0C149C3
:101FA00014392068884202D14FF4800023E0BD49F3
:101FB0002068884201D1C0041DE0BB4920688842E6
:101FC00001D1042017E0B84914312068884201D1BA
:101FD000402010E0B44928312068884201D1001522
:101FE00009E0B1493C312068884202D14FF4804079
:101FF00001E04FF48020AC49091F086054E0A94972
:1020000078392068884201D104204AE0A549643922
:102010002068884202D1402043E04CE0A149503979
:102020002068884201D100153BE09E493C39206878
:10203000884202D14FF4804033E09A492839206821
:10204000884202D14FF480202BE096491439206851
:10205000884202D14FF4800023E0924920688842F0
:1020600001D1C0041DE090492068884201D10420BC
:1020700017E08D4914312068884201D1402010E0DA
:10208000894928312068884201D1001509E0864934
:102090003C312068884202D14FF4804001E04FF487
:1020A0008020804980394860E06A002802D02046BC
:1020B000E16A8847F4E094F8401002208840284004
:1020C000002871D006F002000028FAD020680068CD
:1020D00000F0200040B92068006820F00A00216864
:1020E0000860012084F821006E492068884254D994
:1020F0006C4978392068884201D1022049E0694959
:1021000064392068884201D1202042E06549503975
:102110002068884201D140153BE062493C39206883
:10212000884202D14FF4005033E05E4928392068DC
:10213000884202D14FF400302BE05A49143920680C
:10214000884202D14FF4001023E0564920688842AB
:1021500001D180041DE054492068884201D1022049
:1021600017E0514914312068884201D1202010E045
:102170004D4928312068884201D1401509E04A497B
:102180003C312068884202D14FF4005001E04FF406
:1021900000304549091F086054E0424978392068F9
:1021A000884202D102204AE057E03E496439206863
:1021B000884201D1202042E03A49503920688842C3
:1021C00001D140153BE037493C392068884202D1B3
:1021D0004FF4005033E0334928392068884202D157
:1021E0004FF400302BE02F4914392068884202D187
:1021F0004FF4001023E02B492068884201D180046D
:102200001DE029492068884201D1022017E02649B3
:1022100014312068884201D1202010E02249283161
:102220002068884201D1401509E01F493C312068EF
:10223000884202D14FF4005001E04FF400301949B8
:102240008039486000BF002084F8200000BFA06AE9
:1022500030B32046A16A884722E094F84010082055
:1022600088402840E0B106F00800C8B12068006846
:1022700020F00E002168086094F84010012088408A
:10228000E16B48600120A06384F8210000BF0020BA
:1022900084F8200000BF206B10B12046216B8847D6
:1022A00070BD000080000240080402400146002288
:1022B00009B9012070471E4B086898420BD21D4B8C
:1022C0000868C01A1423B0FBF3F0800008641948B2
:1022D0000838C8630AE0164B0868C01A1423B0FB1C
:1022E000F3F08000086412480838C863022081F8BF
:1022F00021000868026843F6F0708243D1E90103C7
:102300001843CB6818430B6918434B6918438B6912
:102310001843CB69184302430868026000208863B1
:10232000012081F82100002081F8200000BFC1E7D2
:1023300008040240080002402DE9F04104460D4621
:1023400016461F464FF0000800BF94F820000128F1
:1023500002D10220BDE8F081012084F8200000BFF6
:1023600094F8210001282CD1022084F821000020BB
:10237000A0632068006820F00100216808603B46E7
:10238000324629462046FFF7A7FCE06A30B12068B4
:10239000006840F00E00216808600BE020680068CB
:1023A00020F00400216808602068006840F00A00FE
:1023B000216808602068006840F00100216808601A
:1023C00006E000BF002084F8200000BF4FF00208A4
:1023D0004046BFE72DE9F847024600239C467BE1D3
:1023E0004FF0010808FA03F4D1F8008008EA04006D
:1023F000A0427DD1DFF8F4A2D1F80480A8EB0A094D
:10240000D0453AD014DCB8F1030F50D009DCB8F154
:10241000000F31D0B8F1010F1CD0B8F1020F49D133
:1024200020E0B8F1110F18D0B8F1120F42D11EE020
:10243000B9F5881F25D006DCB9F5803F20D0B9F565
:10244000801F37D11AE0B9F5001F18D0B9F5041F65
:1024500030D117E0D1F80CC02DE0D1F80C8008F194
:10246000040C28E0D1F80C8008F1080C23E0D1F826
:102470000C8008F10C0C1EE000BF00BF00BF00BFC5
:1024800000BF00BFD1F80880B8F1000F02D14FF0B3
:10249000040C0BE0D1F80880B8F1010F03D14FF024
:1024A000080C146102E04FF0080C546103E04FF097
:1024B000000C00E000BF00BFFF2801D8904601E0FB
:1024C00002F104084646FF2802D84FEA830803E0D9
:1024D000A3F108084FEA88084746D6F800804FF075
:1024E0000F0909FA07F928EA09080CFA07F900E0C8
:1024F0007AE048EA0908C6F80080D1F8048008F0BC
:102500008058B8F1805F6FD100BFDFF8E481D8F860
:10251000188048F00108DFF8D891C9F81880C8463B
:10252000D8F8188008F00108CDF8008000BF00BF7F
:102530004FEAB9384FEA930958F829504FEA83789F
:102540004FEA18794FF00F0808FA09F825EA08054C
:10255000DFF8A081424502D14FF0000824E0DFF807
:102560009881424502D14FF001081DE0DFF88C81CF
:10257000424502D14FF0020816E0DFF8848142455F
:1025800002D14FF003080FE0DFF87881424502D115
:102590004FF0040808E0DFF87081424502D14FF0A7
:1025A000050801E04FF006084FEA83794FEA1979F0
:1025B00008FA09F848EA0505DFF850814FEA93095F
:1025C00048F82950D1F8048008F48018B8F5801F25
:1025D0000BD1DFF83C81D8F8008048EA0008DFF82A
:1025E0003091C9F800800AE075E0DFF82481D8F85E
:1025F000008028EA0008DFF81891C9F80080D1F8B7
:10260000048008F40018B8F5001F0ED1DFF800812F
:1026100008F10408D8F8008048EA0008DFF8F090D4
:1026200009F10409C9F800800DE0DFF8E48008F141
:102630000408D8F8008028EA0008DFF8D49009F1EF
:102640000409C9F80080D1F8048008F40038B8F50E
:10265000003F0ED1DFF8B880A8F10408D8F8008058
:1026600048EA0008DFF8A890A9F10409C9F8008039
:102670000DE0DFF89C80A8F10408D8F8008028EA73
:102680000008DFF88C90A9F10409C9F80080D1F89E
:10269000048008F48038B8F5803F0ED1DFF87080F0
:1026A000A8F10808D8F8008048EA0008DFF8609030
:1026B000A9F10809C9F800800DE0DFF85480A8F1FD
:1026C0000808D8F8008028EA0008DFF84490A9F14B
:1026D0000809C9F800805B1CD1F8008028FA03F8CB
:1026E000B8F1000F7FF47CAEBDE8F8870000111050
:1026F0000010024000080140000C014000100140A1
:102700000014014000180140001C01400800014075
:10271000080401400AB1016101E00B040361704744
:1027200001480068704700000C0000200348006862
:102730000349097808440149086070470C000020EB
:102740001400002010B50848006840F01000064949
:102750000860032000F0A8F80F2000F007F800F050
:102760002BF8002010BD00000020024070B5044688
:102770000E4800784FF47A71B1FBF0F00C4909680B
:10278000B1FBF0F5284600F0F9FB08B1012070BD5F
:10279000102C07D200222146501E00F047F80548B1
:1027A000046001E00120F2E70020F0E714000020BF
:1027B000180000201000002008B500BF11488069F3
:1027C00040F001000F4988610846806900F001006F
:1027D000009000BF00BF00BF0846C06940F08050B5
:1027E000C8610846C06900F08050009000BF00BF7B
:1027F00000BF0549486820F0E06040F00070486084
:1028000000BF08BD0010024000000140014608461C
:10281000002809DB00F01F0301229A4043099B00B6
:1028200003F1E023C3F8002100BF70472DE9F05FFA
:1028300080460D461646002701F0DCFC0746394667
:102840002A46334601F00700C0F1070ABAF1040F27
:1028500002D94FF0040A01E0C0F1070AD14600F1A5
:10286000040ABAF1070F02D24FF0000A01E0A0F10A
:10287000030AD4464FF0010A0AFA09FAAAF1010A3A
:102880000AEA020A0AFA0CFA4FF0010B0BFA0CFBE7
:10289000ABF1010B0BEA030B4AEA0B04214640465D
:1028A00001F0B0FCBDE8F09F00BF00F00702064B4E
:1028B00019684FF6FF031940044B0B4343EA02210A
:1028C000014B196000BF70470CED00E00000FA05F5
:1028D00070B504460D460CB9012070BD5A48006819
:1028E00000F00700A8420ED25748006820F0070009
:1028F0002843554908600846006800F00700A842D0
:1029000001D00120E9E7207800F0020002281DD163
:10291000207800F00400042805D14C48406840F4B9
:10292000E0604A494860207800F00800082805D196
:102930004648406840F46050444948604348406815
:1029400020F0F000A168084340494860207800F07A
:10295000010078B36068012806D13C48006800F4A3
:10296000003090B90120B8E76068022806D13748E6
:10297000006800F0007040B90120AEE733480068FD
:1029800000F0020008B90120A7E73048406820F0B5
:102990000300616808432D494860FFF7C1FE064601
:1029A00009E0FFF7BDFE801B41F28831884202D961
:1029B000032092E707E02548406800F00C006168BA
:1029C000B0EB810FEDD12048006800F00700A8426D
:1029D0000ED91D48006820F0070028431A490860F6
:1029E0000846006800F00700A84201D0012074E703
:1029F000207800F00400042807D11448406820F42F
:102A0000E060E168084311494860207800F0080060
:102A1000082808D10D48406820F46050216940EA38
:102A2000C1000A49486000F03FF808494968C1F30D
:102A30000311074A515CC84006490860064800680F
:102A4000FFF794FE002048E70020024000100240FB
:102A500032430008180000201000002001480068E0
:102A6000704700001800002000B5FFF7F7FF044989
:102A70004968C1F30221034A515CC84000BD00000F
:102A8000001002404243000800B5FFF7E7FF044989
:102A90004968C1F3C221034A515CC84000BD00002F
:102AA000001002404243000870B5002100220024BB
:102AB00000230020134D696801F00C05F5B1042DC9
:102AC00002D0082D19D101E00F4819E00F4DC1F3D4
:102AD0008346AB5D01F4803555B10A4D6D68C5F391
:102AE00040450B4E725D084D5D43B5FBF2F402E0CC
:102AF000084D03FB05F4204602E000BF024800BF7A
:102B000000BF70BD0010024000127A002043000890
:102B10003043000800093D00F8B504460CB9012017
:102B2000F8BD207800F00100002878D0F84840680F
:102B300000F00C0004280CD0F548406800F00C00B0
:102B4000082811D1F248406800F48030B0F5803F89
:102B50000AD1EF48006800F4003000285FD06068B8
:102B600000285CD10120DBE700BF6068B0F5803F42
:102B700006D1E748006840F48030E549086028E065
:102B8000606858B9E248006820F48030E049086085
:102B90000846006820F4802008601AE06068B0F5FC
:102BA000A02F0BD1DA48006840F48020D849086093
:102BB0000846006840F4803008600AE0D4480068A5
:102BC00020F48030D24908600846006820F4802054
:102BD000086000BF606888B1FFF7A2FD054606E007
:102BE000FFF79EFD401B642801D9032098E7C848E1
:102BF000006800F400300028F2D010E0FFF790FDEC
:102C0000054606E0FFF78CFD401B642801D9032030
:102C100086E7BF48006800F400300028F2D1207831
:102C200000F00200022857D1B948406800F00C00BB
:102C300050B1B748406800F00C00082818D1B448DB
:102C4000406800F4803098B9B148006800F0020094
:102C500020B12069012801D0012061E7AC4800685B
:102C600020F0F800616940EAC100A949086033E03A
:102C70002069E8B10120A7490860FFF751FD05462A
:102C800006E0FFF74DFD401B022801D9032047E76E
:102C90009F48006800F002000028F2D09C480068BD
:102CA00020F0F800616940EAC1009949086013E02A
:102CB000002098490860FFF733FD054606E0FFF75E
:102CC0002FFD401B022801D9032029E79048006806
:102CD00000F002000028F2D1207800F00800082857
:102CE0002DD1A069B8B101208B490860FFF718FD0C
:102CF000054606E0FFF714FD401B022801D903201A
:102D00000EE78348406A00F002000028F2D001205C
:102D100000F0B2FD13E000207F490860FFF700FDDE
:102D2000054606E0FFF7FCFC401B022801D9032002
:102D3000F6E67748406A00F002000028F2D12078D9
:102D400000F00400042873D100277148C06900F026
:102D5000805070B900BF6E48C06940F080506C4927
:102D6000C8610846C06900F08050009000BF00BFF5
:102D700001276A48006800F48070B0B967480068AD
:102D800040F4807065490860FFF7CAFC054606E01C
:102D9000FFF7C6FC401B642801D90320C0E65F484A
:102DA000006800F480700028F2D000BFE0680128BD
:102DB00006D15748006A40F001005549086227E0F3
:102DC000E06858B95248006A20F001005049086292
:102DD0000846006A20F00400086219E0E06805284F
:102DE0000BD14B48006A40F004004949086208468C
:102DF000006A40F0010008620AE04548006A20F0DD
:102E00000100434908620846006A20F00400086295
:102E100000BFE068A0B1FFF783FC054609E0FFF7BB
:102E20007FFC401B41F28831884202D9032077E6BB
:102E300022E03748006A00F002000028EFD012E0DC
:102E4000FFF76EFC054608E0FFF76AFC401B41F205
:102E50008831884201D9032062E62D48006A00F0DB
:102E600002000028F0D1012F05D12948C06920F0C7
:102E700080502749C86100BFE069C8B32448406852
:102E800000F00C00082860D0E069022848D100203A
:102E900020490866FFF744FC054606E0FFF740FCC2
:102EA000401B022801D903203AE61948006800F0C7
:102EB00000700028F2D1206AB0F5803F07D1144895
:102EC000406820F40030A168084311494860D4E903
:102ED000080108430E49496821F4741108430C495C
:102EE000486001200B490866FFF71AFC054607E019
:102EF0003DE0FFF715FC401B022801D903200FE637
:102F00000348006800F000700028F2D02FE00000B5
:102F10000010024000004242800442420070004023
:102F2000002014490866FFF7FBFB054606E0FFF7A3
:102F3000F7FB401B022801D90320F1E50E48006889
:102F400000F000700028F2D111E0E069012800D102
:102F5000E6E50948466806F48031206A814204D1DA
:102F600006F47011606A814201D00120D8E500208A
:102F7000D6E50000000042420010024070B5044651
:102F80002546681EB0F1807F01D301200FE0681E46
:102F90004FF0E02148610F214FF0FF3001F032F98E
:102FA00000204FF0E021886107200861002070BDFB
:102FB000F8B504460D46164694F8420020282DD157
:102FC00005B10EB90120F8BD012020630020606327
:102FD00032462946204601F015F80746206B0128A5
:102FE00019D100BF00200090206800680090206880
:102FF0004068009000BF00BF00BF00BF21680C31D7
:1030000051E8001F41F0100021680C3141E8000236
:10301000002AF3D100E001273846D4E70220D2E7A6
:1030200070B505460C460B48854212D122460A4926
:103030000A4800F0D3FC4FF4407207490548FFF7F7
:10304000B7FF07480068006820F0040004490968D9
:10305000086070BD1C000020901900206002002054
:10306000AC00002010B5044600BF00BF21680C3141
:1030700051E8001F21F4907021680C3141E80002F2
:10308000002AF3D100BF00BF00BF2168143151E80E
:10309000001F21F001002168143141E80002002ADC
:1030A000F3D100BF206B01280ED100BF00BF216803
:1030B0000C3151E8001F21F0100021680C3141E86B
:1030C0000002002AF3D100BF2068406900F04000F0
:1030D00000B300BF00BF2168143151E8001F21F088
:1030E00040002168143141E80002002AF3D100BFFA
:1030F000E06B78B10020E16B4863E06BFEF706FE01
:1031000040B1E06BFEF702FF202803D1102060647D
:10311000032010BD0020E085202084F8420000201C
:10312000206300BFF5E7000010B50446094884425B
:103130000FD1FFF797FF4FF4407207490548FFF79B
:1031400037FF06480068006820F00400034909685A
:10315000086010BD1C00002090190020AC00002069
:103160002DE9F84F0446206805682068C668206885
:1031700047694FF00009CA4605F00F09B9F1000F81
:103180000AD105F0200038B106F0200020B1204619
:1031900000F03BFEBDE8F88FB9F1000F7BD007F0DF
:1031A000010018B906F49070002874D005F00100F1
:1031B00030B106F4807018B1606C40F001006064BA
:1031C00005F0040030B107F0010018B1606C40F068
:1031D0000200606405F0020030B107F0010018B190
:1031E000606C40F00400606405F0080048B106F02F
:1031F000200010B907F0010018B1606C40F0080021
:103200006064606C002845D005F0200028B106F00D
:10321000200010B1204600F0F8FD20684069C0F39E
:10322000801A606C00F0080010B9BAF1000F2CD0C1
:10323000204600F091FD2068406900F0400000B396
:1032400000BF00BF2168143151E8001F21F0400089
:103250002168143141E80002002AF3D100BFE06B7D
:1032600050B17748E16B4863E06BFEF77BFD88B1B6
:10327000E06B416B88470DE02046FFF755FF09E002
:1032800009E02046FFF750FF04E02046FFF74CFF1F
:10329000002060647EE7206B012877D105F01000E4
:1032A000002873D006F010000028FAD000BF0020DC
:1032B000009020680068009020684068009000BF7F
:1032C00000BF2068406900F0400000285FD0E06B3C
:1032D000006840681FFA80F8B8F1000F55D0A08D43
:1032E000404552DDA4F82E80E06B8069202843D051
:1032F00000BF00BF21680C3151E8001F21F480702D
:1033000021680C3141E80002002AF3D100BF00BF60
:1033100000BF2168143151E8001F21F0010021682D
:10332000143141E80002002AF3D100BF00BF00BF02
:103330002168143151E8001F21F040002168143148
:1033400041E80002002AF3D100BF202084F84200A7
:103350000020206300BF00BF21680C3151E8001F2E
:1033600021F0100021680C3141E80002002AF3D15D
:1033700000BFE06BFEF7CAFC02206063A08DE28D07
:10338000801A81B22046FFF74BFE03E742E0A08D92
:10339000E18D401A1FFA80F8E08DD0B3B8F1000F2C
:1033A00037D000BF00BF21680C3151E8001F21F465
:1033B000907021680C3141E80002002AF3D100BF6F
:1033C00000BF00BF2168143151E8001F21F0010047
:1033D0002168143141E80002002AF3D100BF202007
:1033E00084F842000020206300BF00BF21680C3138
:1033F00051E8001F21F0100021680C3141E8000263
:10340000002AF3D100BF0220606341462046FFF747
:1034100007FEBFE605F0800030B106F0800018B16D
:10342000204600F053FEB5E605F0400030B106F04E
:10343000400018B1204600F0C5FCABE600BFA9E68D
:103440001D3C000810B504460CB9012010BDA06950
:1034500000B100E000BF94F8410028B9002084F8D2
:103460004000204600F02AF8242084F8410020681B
:10347000C06820F400502168C860204600F044FD78
:103480002068006920F49040216808612068406944
:1034900020F02A00216848612068C06840F400508C
:1034A0002168C86000206064202084F8410084F80E
:1034B00042000020606300BFC8E7000010B586B07E
:1034C0000446002002900390049005905C49206817
:1034D000884258D100BF5B48C06940F40030594968
:1034E000C8610846C06900F40030019000BF00BF09
:1034F00000BF0846806940F0200088610846806966
:1035000000F02000019000BF00BF202002900220A8
:1035100003900320059002A94B48FEF75BFF402073
:10352000029000200390049002A94748FEF752FF42
:1035300000BF4649486840F0E06040F0080048603D
:1035400000BF4348434908600020486000214148CB
:1035500081608021C1600021016141618161C1619F
:10356000FEF7A4FE08B1FEF7CEFB00BF3948E063CA
:10357000446200BF002204212620FFF757F92620CD
:10358000FFF744F959E034492068884255D100BF1B
:103590002C48C06940F480202A49C8610846C069A7
:1035A00000F48020019000BF00BF00BF0846806982
:1035B00040F0200088610846806900F020000190FA
:1035C00000BF00BF881502900220039003200590E1
:1035D00002A91D48FEF7FEFE4FF400700290002085
:1035E0000390049002A91848FEF7F4FE00BF1749A3
:1035F000486820F0300040F0E06040F03000486063
:1036000000BF13483C38154908600020486000217D
:10361000124881608021C1600021016141618161A6
:103620004FF40051C161FEF741FE08B1FEF76BFB9C
:1036300000BF0A48E063446200BF06B010BD00004E
:10364000004400400010024000140140000001400E
:103650006C000240AC00002000480040F000002058
:10366000704770472DE9F84F04460E4617469946B5
:103670004FF0000A94F84100202850D106B117B944
:103680000120BDE8F88F00206064212084F841000B
:10369000FFF746F88246A784E784A068B0F5805F0C
:1036A00004D1206910B90025B04602E035464FF03C
:1036B00000081EE05346002280212046CDF80090ED
:1036C00000F034FD20B1202084F841000320D8E729
:1036D00045B9B8F80000C0F308002168486008F157
:1036E000020803E02878216848606D1CE08C401EC9
:1036F000E084E08C0028DDD15346002240212046A2
:10370000CDF8009000F012FD20B1202084F8410097
:103710000320B6E7202084F841000020B1E7022012
:10372000AFE7704700BFFEE708B500BF0E4840692D
:1037300040F001000C4948610846406900F0010072
:10374000009000BF00BF002211460D20FFF76EF869
:103750000D20FFF75BF8002204211020FFF766F828
:103760001020FFF753F808BD0010024000B585B0E7
:103770000020019002900390049000BF1D488069D2
:1037800040F020001B4988610846806900F0200055
:10379000009000BF00BF00BF0846806940F00400F1
:1037A00088610846806900F00400009000BF00BFF7
:1037B00000224FF490611048FEF7ACFF4FF4806098
:1037C000019001200290002003900220049001A9A2
:1037D0000948FEF7FFFD8020019011200290002093
:1037E00003900220049001A90348FEF7F3FD05B001
:1037F00000BD0000001002400014014010B50B484D
:103800000B4908604FF4E1304860002108488160AE
:10381000C16001610C21416100218161C161FFF73B
:1038200011FE08B1FEF76FFA10BD00000044004021
:103830001C00002010B50B480B4908604FF4E13024
:103840004860002108488160C16001610C2141612C
:1038500000218161C161FFF7F5FD08B1FEF753FA60
:1038600010BD0000004800406400002000BFFEE7DB
:1038700000BFFEE77047000008B508490968C9089D
:103880004FF47A72B1FBF2F14143009100BF00BFE7
:1038900000994A1E00920029F9D108BD18000020A5
:1038A00010B50146486800880C8A001B83B28868FE
:1038B00000880C8A001B82B2934202DB981A80B205
:1038C00010BD888A801A184480B2F9E710B5044602
:1038D0002046FFF7E5FFA18A081A80B210BD2DE946
:1038E000F04104460E4690461D46069F07EB4700F2
:1038F00081002846FCF780FE18212046FCF77CFE5C
:103900002661A4F814802560E7826560A560781EB2
:1039100000EB400005EB8000E060606806606068D6
:103920004660002061680881BDE8F0812DE9F04122
:1039300007460C4690461D4642462146384600F052
:1039400008F80646002E02DD31462046A847BDE8AD
:10395000F0812DE9F04704460F469046D4E9010175
:10396000884202D10020BDE8F087A068058945455E
:1039700000DD4546A0680088218A401A1FFA80F9B8
:10398000A08AA0EB090086B2B54206DCA0682A46F0
:1039900001683846FCF7EBFD0AE0A0683246016892
:1039A0003846FCF7E4FDAA1BB8192169FCF7DFFDD6
:1039B00009EB0500A18A90FBF1F201FB12002169DD
:1039C0000844A1680860A0680C30A060D4E9020136
:1039D000884201D12068A0602846C4E72DE9F04163
:1039E00004460F4615462046FFF770FFA84202DA4C
:1039F0000020BDE8F0816068058160680068216989
:103A0000401A2844A18A884217DA61682A46086861
:103A10003946FCF7ACFD606800684619701E6168A5
:103A2000486060680C306060E1686068884201D17D
:103A300020686060606806602FE060680088218A06
:103A4000401AA18A081A86B2616832460868394667
:103A5000FCF78DFDAA1BB9192069FCF788FDA91B8D
:103A6000206900EB0108A81B06D1A08A401E21692D
:103A700008446168486003E0A8F10100616848609B
:103A800060680C306060E1686068884201D120683D
:103A900060606068C0F8008000BF2846A9E77047F2
:103AA00010B5FEF743FE10BD00B58FB0282105A864
:103AB000FCF7A2FD14216846FCF79EFD012005904D
:103AC00000040690002007900120099002200C902D
:103AD000C1030D914FF4E0110E9105A8FFF71CF8FA
:103AE00008B1FEF710F90F2000900220019000208D
:103AF00002904FF4806003900020049002216846F9
:103B0000FEF7E6FE08B1FEF7FEF80FB000BD704705
:103B100008B50F20044B4FF440620449009004485C
:103B2000FFF7DDFE08BD000034010020900D0020ED
:103B30006002002008B50A20044B4FF400620449DB
:103B400000900448FFF7CBFE08BD0000E80100200C
:103B5000900500207802002010B5FFF7D9FFFFF78D
:103B6000E9FF4FF4407206490648FFF721FA06487C
:103B70000068006820F0040003490968086010BD6F
:103B8000901900201C000020AC0000200FB438B5B4
:103B900005A800900A48009A0499FCF78DFB0020C4
:103BA00000900748FCF7C4FC84B24FF0FF33224674
:103BB00003490448FFF756FD38BC5DF814FB0000CC
:103BC000901C00201C00002070B504460D462946BC
:103BD00003A0FFF7DBFF2946204600F011F870BD77
:103BE000E69CACE6ACA1E68EA5E694B62564E5AD10
:103BF00097E88A82E695B0E68DAE0D0A00000000D7
:103C000070B504460D464FF0FF332A462146024860
:103C1000FFF728FD70BD00001C00002070B50546B0
:103C20006C6A0020E085E0842046FFF77DFA70BDD5
:103C300070B506460025746A20684069C0F3C01557
:103C400094F84100212805D125B10020E0842046C8
:103C500000F0C8F820684069C0F3801594F842006D
:103C6000222805D125B10020E085204600F074F817
:103C7000606C40F0100060642046FFF755FA70BD9C
:103C800070B505466C6A2868006800F020000028BE
:103C900042D1E08500BF00BF21680C3151E8001F10
:103CA00021F4807021680C3141E80002002AF3D130
:103CB00000BF00BF00BF2168143151E8001F21F090
:103CC00001002168143141E80002002AF3D100BF4D
:103CD00000BF00BF2168143151E8001F21F04000EF
:103CE0002168143141E80002002AF3D100BF2020EE
:103CF00084F84200206B01280ED100BF00BF21686C
:103D00000C3151E8001F21F0100021680C3141E80E
:103D10000002002AF3D100BF00206063206B01285D
:103D200004D1A18D2046FFF77BF902E02046FFF782
:103D300097FC70BD70B505466C6A01206063206B0E
:103D4000012805D1A08D41082046FFF769F902E05E
:103D50002046FFF786FC70BD00BF00BF02680C3232
:103D600052E8002F22F4907102680C3242E80013EE
:103D7000002BF3D100BF00BF00BF0268143252E82D
:103D8000002F22F001010268143242E80013002BD8
:103D9000F3D100BF016B01290ED100BF00BF026843
:103DA0000C3252E8002F22F0100102680C3242E877
:103DB0000013002BF3D100BF202180F84210002116
:103DC0000163704710B504462068C06820F04000C9
:103DD0002168C860202084F841002046FFF7A1FC3C
:103DE000002010BD00BF00BF02680C3252E8002F57
:103DF00022F0C00102680C3242E80013002BF3D11C
:103E000000BF202180F841107047F8B5044694F8AF
:103E10004200222875D1A068B0F5805F0CD12069DE
:103E200050B90025A66A20684068C0F308003080B9
:103E3000A06A801CA06215E0A56A0026A068B0F503
:103E4000805F03D0A06828B9206918B9206840684D
:103E5000287004E02068406800F07F002870A06AA5
:103E6000401CA062E08D401E80B2E085002846D153
:103E70002068C06820F020002168C8602068C06801
:103E800020F480702168C8602068406920F001003B
:103E900021684861202084F8420000206063206B84
:103EA000012826D10020206300BF00BF21680C310B
:103EB00051E8001F21F0100021680C3141E8000298
:103EC000002AF3D100BF2068006800F0100010281D
:103ED0000AD100BF00200090206800680090206890
:103EE0004068009000BF00BFA18D2046FFF798F802
:103EF00002E02046FFF7B4FB0020F8BD01E00020FF
:103F0000FBE70220F9E7000070B504462168096963
:103F100021F44051E2681143226811612269A168CD
:103F20001143626941EA02052168C96841F20C62E5
:103F3000914329432268D1602168496921F4407185
:103F4000A2691143226851612D4A2168914202D130
:103F5000FEF79AFD01E0FEF787FD00EBC00101EBE3
:103F6000001162689200B1FBF2F100EBC00202EBBB
:103F7000001263689B00B2FBF3F26423B2FBF3F21E
:103F800002EBC20303EB0212A1EB8201322202EB2D
:103F900001116422B1FBF2F101F0F00100EBC0026B
:103FA00002EB001263689B00B2FBF3F26423B2FBE6
:103FB000F3F201EB021200EBC00101EB00116368A8
:103FC0009B00B1FBF3F100EBC00303EB0013666849
:103FD000B600B3FBF6F36426B3FBF6F303EBC306BC
:103FE00006EB0313A1EB8301322303EB01116423DE
:103FF000B1FBF3F101F00F0111442268916070BD33
:104000000038014077B581B0044615460298A06299
:10401000A58500206064222084F842002848E16BD6
:1040200088622848E16BC8622748E16B086300207A
:10403000E16B486302AE32682368191D2B46E06BC2
:10404000FEF77AF900BF0020009020680068009019
:1040500020684068009000BF00BF206970B100BFB9
:1040600000BF21680C3151E8001F41F480702168C5
:104070000C3141E80002002AF3D100BF00BF00BFAD
:104080002168143151E8001F41F00100216814310A
:1040900041E80002002AF3D100BF00BF00BF216841
:1040A000143151E8001F41F040002168143141E80B
:1040B0000002002AF3D100BF002004B070BD000050
:1040C000813C0008353D0008313C0008014691F86C
:1040D0004100212828D18868B0F5805F0BD108699C
:1040E00048B90A6A1088C0F308000B685860086A6B
:1040F000801C086205E00B6A581C086218780B687F
:104100005860C88C401E80B2C88458B90868C0681E
:1041100020F080000B68D8600868C06840F040005C
:104120000B68D860002070470220FCE72DE9F843B7
:1041300004460D4617469846089E31E0701C70B341
:10414000FEF7EEFAA0EB0800B04200D816B9032043
:10415000BDE8F8832068C06800F00400F8B1802D45
:104160001ED0402D1CD020680068C0F3C000B0B144
:1041700000BF002000902068006800902068406820
:10418000009000BF00BF2046FFF7E6FD08206064F6
:1041900000BF002084F8400000BF0120D8E7FFE7FF
:1041A000206800682840A84201D1012000E00020DA
:1041B000B842C3D00020CBE710B50248FEF7D0FFCD
:1041C00010BD00001C00002000BFFEE7490050EABF
:1041D000C12018BF04204A0D18BF40F0010040F272
:1041E000FF72B2EB515F08BF40F00200012808BF28
:1041F0000520704702480068C0F3022070470000A5
:104200000CED00E010B5002804DB0A07130E054A88
:10421000135406E00A07140E034A00F00F031B1F95
:10422000D45410BD00E400E018ED00E030380A2856
:1042300001D201207047002070470000FEF782FA8B
:10424000FFF732FCFFF792FAFFF76EFAFFF7D6FAA4
:10425000FFF7F0FAFFF780FC24E0FEF761FA04466E
:1042600011480068201A01D00F480460FEF758FA80
:1042700004460E480068201A0A2801D30B4804603F
:10428000FEF74EFA04460A480068201A642808D34C
:1042900007480460074B4FF4407207490748FFF78F
:1042A00045FB00BFD9E7000000000020040000200B
:1042B00008000020C93B0008900200206002002096
:1042C00010B500290AD00878002807D0054878449E
:1042D000FDF7E0F8002801D0002010BD0248784426
:1042E00010BD00009A0100009201000010B50029E5
:1042F0000AD00878002807D005487844FDF7CAF8A6
:10430000002801D0002010BD0248784410BD0000F4
:104310008A01000082010000FCF7E0BCFCF714BE3B
:1043200002030405060708090A0B0C0D0E0F1010F6
:104330000102000000000000000001020304060763
:104340000809000000000102030404000008000046
:10435000000000000002000100001000000000004A
:1043600000000000303132333435363738394142BD
:1043700043444546403058003031323334353637C7
:1043800038396162636465664030780030313233B9
:104390003435363738396162636465667870003069
:1043A0003132333435363738394142434445465843
:1043B0005000000002400000000000A000000000CB
:1043C00005400000000000C8000000000C40000094
:1043D0000000409C00000000194000000020BCBE0E
:1043E0000000000034400000BFC91B8E0000000424
:1043F000B5400000504BCFD06607E2CF010000006F
:104400006C4100003E8251AADFEEA734010000009B
:10441000D9420000DCB5A0E23A301F97FFFFFFFF52
:10442000B4450000FD25A0C8E9A3C14FFFFFFFFF71
:10443000FF3F00000000008000000000FF3F000080
:1044400000000080000000009445000800000020EB
:104450001C0000006C010008B04500081C00002092
:10446000D4260000880100081C0000004300000062
:10447000F8FFFFFF0C0000000E0000000F0000001E
:104480002E0000001001000043000000F8FFFFFFB5
:104490000040404040404040404041414141414057
:1044A000404040404040404040404040404040400C
:1044B000400502020202020202020202020202029B
:1044C00002202020202020202020200202020202A0
:1044D00002029090909090901010101010101010F8
:1044E0001010101010101010101010100202020204
:1044F0000202888888888888080808080808080848
:104500000808080808080808080808080202020243
:10451000400000000000000000000000000000005B
:10452000000000000000000000000000000000008B
:10453000000000000000000000000000000000007B
:10454000000000000000000000000000000000006B
:10455000000000000000000000000000000000005B
:10456000000000000000000000000000000000004B
:10457000000000000000000000000000000000003B
:10458000000000000000000000000000000000002B
:10459000000000000000000000000000000000001B
:1045A00000000000100000000100000000127A006E
:0400000508000131BD
:00000001FF
